:020000040800F2
:1000000000200020690F0008ED0A0008F30A00082C
:1000100000000000000000000000000000000000E0
:10002000000000000000000000000000F90A0008C5
:100030000000000000000000030B00080D0B00088A
:10004000B90F0008B90F0008B90F0008B90F000870
:10005000B90F0008B90F0008B90F0008B90F000860
:1000600000000000B90F0008B90F0008B90F000820
:10007000B90F0008B90F0008B90F0008B90F000840
:10008000B90F0008B90F0008B90F0008B90F000830
:1000900000000000B90F0008B90F0008B90F0008F0
:1000A000B90F0008B90F0008B90F0008B90F000810
:0C00B000B90F0008B90F000800000000A4
:1000BC0010B5064C2378002B07D1054B002B02D032
:1000CC00044800E000BF0123237010BD6000002035
:1000DC000000000078230008044B10B5002B03D05F
:1000EC000349044800E000BF10BDC04600000000FA
:1000FC006400002078230008002243088B4274D34C
:10010C0003098B425FD3030A8B4244D3030B8B420C
:10011C0028D3030C8B420DD3FF22090212BA030C15
:10012C008B4202D31212090265D0030B8B4219D3F6
:10013C0000E0090AC30B8B4201D3CB03C01A524116
:10014C00830B8B4201D38B03C01A5241430B8B425E
:10015C0001D34B03C01A5241030B8B4201D30B0347
:10016C00C01A5241C30A8B4201D3CB02C01A52416E
:10017C00830A8B4201D38B02C01A5241430A8B4231
:10018C0001D34B02C01A5241030A8B4201D30B021A
:10019C00C01A5241CDD2C3098B4201D3CB01C01A34
:1001AC00524183098B4201D38B01C01A524143093E
:1001BC008B4201D34B01C01A524103098B4201D32C
:1001CC000B01C01A5241C3088B4201D3CB00C01A99
:1001DC00524183088B4201D38B00C01A5241430811
:1001EC008B4201D34B00C01A5241411A00D2014636
:1001FC00524110467047FFE701B5002000F006F8A9
:10020C0002BDC0460029F7D076E770477047C0465C
:10021C0080B582B000AF786039607B689B6818222B
:10022C0093431A003B681A437B689A60C046BD46EC
:10023C0002B080BD80B582B000AF786039607B6859
:10024C009B68602293431A003B681A437B689A6050
:10025C00C046BD4602B080BD80B582B000AF7860AC
:10026C0039607B689B68802293431A003B681A4371
:10027C007B689A60C046BD4602B080BD80B582B036
:10028C0000AF786039607B683A681A61C046BD4639
:10029C0002B080BD80B582B000AF786039607B68F9
:1002AC003A685A61C046BD4602B080BD80B584B084
:1002BC0000AF7860074B996B064B7A680A439A63D8
:1002CC00044B9B6B7A681340FB60FB68C046BD46D1
:1002DC0004B080BD0010024080B500AF80235B01EC
:1002EC001800FFF7E3FF0F4B00211800FFF7A2FFE8
:1002FC000C4B00211800FFF7AFFF0B4A094B110004
:10030C001800FFF7C7FF074B00211800FFF780FF0D
:10031C0001235B42034A19001000FFF7AFFFC046F0
:10032C00BD4680BD00300240B71DC10480B584B00D
:10033C0000AF7860074B596B064B7A680A435A63D7
:10034C00044B5B6B7A681340FB60FB68C046BD4690
:10035C0004B080BD0010024080B582B000AF786060
:10036C0039607B683A689A62C046BD4602B080BD6F
:10037C0080B586B000AF3B00180018231A0000218E
:10038C0001F020FD0220FFF7D1FF0420FFF7CEFF84
:10039C000120FFF7CBFF8023DB011D4A1900100061
:1003AC00FFF7DAFFA023DB0510211800FFF7D4FFBD
:1003BC003B008022D2011A603B0001225A603B00B4
:1003CC0000229A603B000022DA603B0000221A6196
:1003DC003B000F4A1900100000F0A2FE3B00102257
:1003EC001A603B0001225A603B0000229A603B00DD
:1003FC000022DA603B0000221A613A00A023DB05E0
:10040C001100180000F08CFEC046BD4606B080BD41
:10041C000008005080B582B000AF78607B681B6824
:10042C00034A1A407B681A60C046BD4602B080BDC4
:10043C00FFFFFDFF80B582B000AF78607B681B6862
:10044C00034A1A407B681A60C046BD4602B080BDA4
:10045C00FFFFF7FF80B584B000AFF860B9607A6039
:10046C00FB68DB68054A1A40B9687B680B431A4382
:10047C00FB68DA60C046BD4604B080BD01F8FFFFE2
:10048C0080B582B000AF78607B68DB68034A1A40A5
:10049C007B68DA60C046BD4602B080BDFF7FFFFFBF
:1004AC0080B582B000AF78607B685B688022920474
:1004BC001A437B685A60C046BD4602B080BD00003E
:1004CC0080B584B000AF7860074BD96B064B7A6867
:1004DC000A43DA63044BDB6B7A681340FB60FB68FE
:1004EC00C046BD4604B080BD0010024080B584B04B
:1004FC0000AF7860074B596B064B7A680A435A6316
:10050C00044B5B6B7A681340FB60FB68C046BD46CE
:10051C0004B080BD0010024090B58FB000AF1C2419
:10052C003B1918001C231A00002101F04BFC3B1D49
:10053C00180018231A00002101F044FC0120FFF7D9
:10054C00D5FF3B1D802212011A603B1D02225A600E
:10055C003B1D00229A603B1D0122DA603B1D0022EC
:10056C001A613B1D06225A613A1DA023DB051100BE
:10057C00180000F0D5FD3B1D802252011A603B1D76
:10058C0002225A603B1D00229A603B1D0122DA6058
:10059C003B1D00221A613B1D06225A613A1DA02305
:1005AC00DB051100180000F0BBFD8023DB031800F5
:1005BC00FFF786FF21007B1800221A607B18184A6F
:1005CC005A607B1800229A607B180022DA607B1834
:1005DC0000221A617B1800225A617B1800229A6152
:1005EC007B18104A1900100000F092FE0D4B1800F9
:1005FC00FFF756FF0B4B002200211800FFF72AFFD4
:10060C00084B1800FFF73CFF064B1800FFF712FFD2
:10061C00044B1800FFF7FEFEC046BD460FB090BD60
:10062C00BC7D70100058004090B583B000AF020044
:10063C003960FB1D1A70FB1D1B787F2B28D82F4AA5
:10064C00FB1D1B785BB29B08C0339B009B58FA1DAB
:10065C001278110003220A40D200FF2191400A00B7
:10066C00D2431A4011003B689B01FF221A40FB1D2C
:10067C001B78180003230340DB009A401F48FB1D26
:10068C001B785BB29B080A43C0339B001A5031E0C5
:10069C001B4AFB1D1B7819000F230B40083B9B08C2
:1006AC0006339B00D31804331B68FA1D1278110013
:1006BC0003220A40D200FF2191400A00D2431A4083
:1006CC0011003B689B01FF221A40FB1D1B78180090
:1006DC0003230340DB009A400948FB1D1B781C00D8
:1006EC000F232340083B9B080A4306339B00C31887
:1006FC0004331A60C046BD4603B090BD00E100E073
:10070C0000ED00E080B500AF044B1A68034B80216C
:10071C0049000A431A60C046BD4680BD0010024025
:10072C0080B500AF074B1A688023DB001A4080238A
:10073C00DB009A4201D1012300E000231800BD46E2
:10074C0080BDC0460010024080B582B000AF78601A
:10075C00064B9B68072293431900044B7A680A43A3
:10076C009A60C046BD4602B080BDC0460010024033
:10077C0080B500AF034B9B68382213401800BD4670
:10078C0080BDC0460010024080B582B000AF7860DA
:10079C00064B9B68064A13401900044B7A680A43BF
:1007AC009A60C046BD4602B080BDC04600100240F3
:1007BC00FFF0FFFF80B582B000AF7860064B9B68FE
:1007CC00064A13401900044B7A680A439A60C046E3
:1007DC00BD4602B080BDC04600100240FF8FFFFF37
:1007EC0080B500AF044B1A68034B802149040A43BF
:1007FC001A60C046BD4680BD0010024080B500AFF7
:10080C00074B1A6880239B041A4080239B049A424E
:10081C0001D1012300E000231800BD4680BDC04675
:10082C000010024080B584B000AFF860B9607A6007
:10083C003B600A4BDB680A4A13401900FA68BB6834
:10084C001A437B681B021A433B681A43034B0A4347
:10085C00DA60C046BD4604B080BDC0460010024000
:10086C008C80FF1F80B500AF044BDA68034B8021EE
:10087C0049050A43DA60C046BD4680BD00100240FF
:10088C0080B584B000AF7860074BD96B064B7A68A3
:10089C000A43DA63044BDB6B7A681340FB60FB683A
:1008AC00C046BD4604B080BD0010024080B584B087
:1008BC0000AF7860074B196C064B7A680A431A64D0
:1008CC00044B1B6C7A681340FB60FB68C046BD464A
:1008DC0004B080BD0010024080B582B000AF7860DB
:1008EC00064B1B68072293431900044B7A680A4392
:1008FC001A60C046BD4602B080BDC0460020024012
:10090C0080B500AF034B1B68072213401800BD468F
:10091C0080BDC0460020024080B582B000AF786038
:10092C007B68DB6940221340402B01D1012300E09E
:10093C0000231800BD4602B080BD80B582B000AF68
:10094C0078607B68DB6980221340802B01D1012306
:10095C0000E000231800BD4602B080BD80B582B017
:10096C0000AF78607B6840221A62C046BD4602B078
:10097C0080BD80B582B000AF78600A00FB1C1A7095
:10098C00FB1C1A787B689A62C046BD4602B080BDDB
:10099C0080B584B000AF786039607B685B69FB60C0
:1009AC00FB683A6813401A04FB68DB4339680B4058
:1009BC001A437B689A61C046BD4604B080BD0000F6
:1009CC0080B582B000AF7860C0460E4B1800FFF7C0
:1009DC00B4FF031EF9D07B68DBB20A4A1900100081
:1009EC00FFF7C7FF074B1800FFF7B8FFC046054BD2
:1009FC001800FFF791FF031EF9D07B681800BD4665
:100A0C0002B080BD0038014080B500AF0120FFF777
:100A1C004DFF80235B051800FFF732FF01235B427B
:100A2C0003211800FFF700FE00F01AF8FFF7A0FCF6
:100A3C00FFF752FCFFF770FD00F0F4F9A023DB0583
:100A4C0010211800FFF7A4FFFA239B00180000F0F8
:100A5C0071FF024B180001F0B9F8EFE79023000882
:100A6C0080B500AF0220FFF737FFC046FFF748FF05
:100A7C000300022BFAD1FFF745FEC046FFF750FEEC
:100A8C000300012BFAD180239B05082200210220B0
:100A9C00FFF7C8FEFFF7A4FEFFF7E4FEC046FFF722
:100AAC00ADFE0300012BFAD10020FFF76DFE0220F2
:100ABC00FFF74AFEC046FFF75BFE0300102BFAD18E
:100ACC000020FFF777FE054B180000F023FF034BC7
:100ADC00180000F053FFC046BD4680BD0090D00307
:100AEC0080B500AFFEE780B500AFFEE780B500AF84
:100AFC00C046BD4680BD80B500AFC046BD4680BD7A
:100B0C0080B500AFC046BD4680BD80B586B000AF95
:100B1C00F860B9607A6000237B610AE000E000BFF6
:100B2C000100BB685A1CBA60CAB21A707B690133E7
:100B3C007B617A697B689A42F0DB7B681800BD4662
:100B4C0006B080BD80B586B000AFF860B9607A6041
:100B5C0000237B6109E0BB685A1CBA601B78180043
:100B6C00FFF72EFF7B6901337B617A697B689A42C0
:100B7C00F1DB7B681800BD4606B080BD80B582B045
:100B8C0000AF786001235B421800BD4602B080BD07
:100B9C0080B582B000AF786039603B6880229201EA
:100BAC005A6000231800BD4602B080BD80B582B0EB
:100BBC0000AF786001231800BD4602B080BD80B53F
:100BCC0084B000AFF860B9607A6000231800BD46AD
:100BDC0004B080BD80B586B000AF7860144A154B68
:100BEC00D31A7B617B693B61134B1B68002B02D1D1
:100BFC00114B124A1A60104B1A687B68D3183A6969
:100C0C009A4207D201F034F903000C221A60012336
:100C1C005B4209E0084B1B68FB60074B1A687B685A
:100C2C00D218054B1A60FB681800BD4606B080BD93
:100C3C0000200020000400007C000020D0010020D7
:100C4C0080B500AFC046BD4680BD000080B582B007
:100C5C0000AF7860084B5B6D7A68120CD2431A4077
:100C6C0011007B681B041A0C034B0A435A65C046DF
:100C7C00BD4602B080BDC0460010024080B584B0B5
:100C8C0000AF7860074B196C064B7A680A431A64FC
:100C9C00044B1B6C7A681340FB60FB68C046BD4676
:100CAC0004B080BD0010024080B584B000AF786005
:100CBC00074B596B064B7A680A435A63044B5B6BC0
:100CCC007A681340FB60FB68C046BD4604B080BD2B
:100CDC000010024080B582B000AF78607B681B6862
:100CEC0001221A437B681A60C046BD4602B080BD23
:100CFC0080B582B000AF78607B681B68034A1A40ED
:100D0C007B681A60C046BD4602B080BDFFFFFFDFA6
:100D1C0080B586B000AF78603960EFF31083BB60AC
:100D2C00BB687B610123FB60FB6883F31088C046C2
:100D3C007B689B68DB00DA083B685B071A437B68BF
:100D4C009A607B693B613B6983F31088C046C0465F
:100D5C00BD4606B080BD000080B586B000AF78609F
:100D6C003960EFF31083BB60BB687B610123FB60D0
:100D7C00FB6883F31088C0467B689B68084A1A405E
:100D8C003B685B061A437B689A607B693B613B69F5
:100D9C0083F31088C046C046BD4606B080BDC04631
:100DAC00FFFFFFF180B582B000AF78607B685B68B5
:100DBC00074A1A407B685A607B689B682A229343D7
:100DCC001A007B689A60C046BD4602B080BDC04622
:100DDC00FFB7FFFF80B582B000AF78607B68DA693F
:100DEC0080239B031A4080239B039A4201D1012349
:100DFC0000E000231800BD4602B080BD80B582B073
:100E0C0000AF78607B68DA698023DB031A408023AB
:100E1C00DB039A4201D1012300E000231800BD46F8
:100E2C0002B080BD90B58FB000AF18243B191800EC
:100E3C0020231A00002100F0C5FF3B0018001823E6
:100E4C001A00002100F0BEFFC0239B021800FFF720
:100E5C00FDFE8023DB011800FFF710FF0220FFF7D7
:100E6C0023FF3B0080221A603B0002225A603B00A9
:100E7C0000229A603B000022DA603B0000221A61DB
:100E8C003B0000225A613B00324A1900100000F06E
:100E9C0047F93B0040221A603B0002225A603B009B
:100EAC0000229A603B000022DA603B0000221A61AB
:100EBC003B0000225A613B00264A1900100000F04A
:100ECC002FF93B1900221A603B19E12252025A6099
:100EDC0021007B1800229A607B180022DA607B18B4
:100EEC0000221A617B180C225A617B1800229A612D
:100EFC007B180022DA617B18174A1900100000F0E9
:100F0C007DFC154B00211800FFF702FF124B00214E
:100F1C001800FFF721FF104B1800FFF7E9FE0E4BEE
:100F2C001800FFF73FFF0C4B1800FFF7D3FEC0462D
:100F3C00094B1800FFF74EFF031EF9D0064B1800A3
:100F4C00FFF75CFF031EF3D0C046C046BD460FB092
:100F5C0090BDC04600040050003801400D48854645
:100F6C00FFF76EFE0C480D490D4A002302E0D458E1
:100F7C00C4500433C4188C42F9D30A4A0A4C0023D7
:100F8C0001E013600432A242FBD300F077FFFFF7BD
:100F9C003BFDFEE700200020000000206000002048
:100FAC004424000860000020CC010020FEE780B53E
:100FBC0084B000AFF860B9607A60FB681968BB68F0
:100FCC005B431A0013005B009B18DB430B401A00B9
:100FDC00BB685B4379684B431A43FB681A60C04695
:100FEC00BD4604B080BD80B584B000AFF860B96078
:100FFC007A60FB685B68BA68D2431A40BB68796850
:10100C004B431A43FB685A60C046BD4604B080BDD2
:10101C0080B584B000AFF860B9607A60FB689968FD
:10102C00BB685B431A0013005B009B18DB430B404F
:10103C001A00BB685B4379684B431A43FB689A60A0
:10104C00C046BD4604B080BD80B584B000AFF8602A
:10105C00B9607A60FB68D968BB685B431A001300FF
:10106C005B009B18DB430B401A00BB685B43796841
:10107C004B431A43FB68DA60C046BD4604B080BDE2
:10108C0080B584B000AFF860B9607A60FB68196A0B
:10109C00BB685B43BA685343BA685A4313001B01DD
:1010AC009B1ADB430B401A00BB685B43B9684B438C
:1010BC00B9684B4379684B431A43FB681A62C046C4
:1010CC00BD4604B080BD80B584B000AFF860B96097
:1010DC007A60FB68596ABB681B0ABA68120A5343E8
:1010EC00BA68120A5343BA68120A5A4313001B0116
:1010FC009B1ADB430B401A00BB681B0AB968090A30
:10110C004B43B968090A4B43B968090A4B437968E0
:10111C004B431A43FB685A62C046BD4604B080BDBF
:10112C0080B584B000AF786039600023FB6047E085
:10113C003B681B680121FA6891400A001340BB60B0
:10114C00BB68002B39D03B685B68012B03D03B6834
:10115C005B68022B0DD13B689A68B9687B681800F4
:10116C00FFF756FF3B68DA68B9687B681800FFF731
:10117C003AFF3B681A69B9687B681800FFF764FF8F
:10118C003B685B68022B11D1BB68FF2B07D83B680F
:10119C005A69B9687B681800FFF772FF06E03B6874
:1011AC005A69B9687B681800FFF78DFF3B685A686D
:1011BC00B9687B681800FFF7FAFEFB680133FB6027
:1011CC003B681A68FB68DA40131EB1D10023180083
:1011DC00BD4604B080BD80B582B000AF78607B683E
:1011EC001B6801221A437B681A60C046BD4602B0D8
:1011FC0080BD80B582B000AF78607B681B6801222F
:10120C0093431A007B681A60C046BD4602B080BD8D
:10121C0080B584B000AFF860B9607A60FB681B6879
:10122C00064A1A407B681902BB680B431A43FB68D9
:10123C001A60C046BD4604B080BDC046FFE0FFFF4B
:10124C0080B584B000AFF860B9607A60FB689B68C9
:10125C00DB0ADA02B9687B680B431A43FB689A60B5
:10126C00C046BD4604B080BD80B582B000AF78608A
:10127C007B689B68802212021A437B689A60C04686
:10128C00BD4602B080BD000080B582B000AF786072
:10129C007B689B68034A1A407B689A60C046BD46CF
:1012AC0002B080BDFF7FFFFF80B582B000AF7860D9
:1012BC0039607B683A681A61C046BD4602B080BD91
:1012CC0080B582B000AF786039607B681B68054AD6
:1012DC001A403B681A437B681A60C046BD4602B090
:1012EC0080BDC046FFFFCFFF80B582B000AF7860F5
:1012FC0039607B685B68054A1A403B681A437B6817
:10130C005A60C046BD4602B080BDC046FF7FFFFF9D
:10131C0080B582B000AF786039607B681800FFF749
:10132C0068FF3B6899683B68DA687B681800FFF7D0
:10133C006FFF3B685A687B6811001800FFF7B4FF19
:10134C007B681800FFF747FF7B681800FFF79CFFCE
:10135C003B6819693B689A697B681800FFF770FF56
:10136C003B681B69002B03D07B681800FFF77CFFE0
:10137C003B681A687B6811001800FFF7A1FF3B68F7
:10138C005A697B6811001800FFF7AEFF00231800A4
:10139C00BD4602B080BD000080B500AF074B1A6897
:1013AC008023DB001A408023DB009A4201D1012309
:1013BC0000E000231800BD4680BDC046001002406E
:1013CC0080B500AF054BDB6D02221340022B01D11F
:1013DC00012300E000231800BD4680BD0010024030
:1013EC0080B500AF034B9B68382213401800BD46F4
:1013FC0080BDC0460010024080B500AF034B9A6818
:10140C00F0231B0113401800BD4680BD00100240A4
:10141C0080B500AF034B9A68E023DB011340180042
:10142C00BD4680BD0010024080B582B000AF786030
:10143C00054B5B6D7A681A407B681B0413431800DC
:10144C00BD4602B080BDC0460010024080B500AF62
:10145C00034BDB681B0A7F2213401800BD4680BD7E
:10146C000010024080B500AF034BDB685B0F5B07DD
:10147C001800BD4680BDC0460010024080B500AFCC
:10148C00034BDB68032213401800BD4680BDC046E9
:10149C000010024080B500AF034BDB687022134094
:1014AC001800BD4680BDC0460010024080B582B019
:1014BC0000AF786000F066F802007B681A607B6809
:1014CC001B68180000F08CF802007B685A607B687F
:1014DC005B68180000F09CF802007B689A60C046BC
:1014EC00BD4602B080BD000080B584B000AF78600E
:1014FC000023FB607B68032B37D17B681800FFF758
:10150C0093FF03001B4A934216D01A4A93421CD8ED
:10151C00194A934203D0194A934205D015E000F0C2
:10152C0031F80300FB6020E0FFF736FF0300012BCE
:10153C0018D1134BFB6015E0FFF742FF0300012BA2
:10154C0012D180231B02FB600EE000F01BF803009D
:10155C00180000F045F80300180000F059F80300DB
:10156C00FB6002E0C04600E0C046FB681800BD46C8
:10157C0004B080BD0300030001000300020003005F
:10158C000024F40080B582B000AFFFF729FF030000
:10159C00082B02D0102B03D007E00E4B7B6014E01D
:1015AC0000F04CF803007B600FE00B4B1B68DB0A70
:1015BC000722134001229A4013003B603968074808
:1015CC00FEF79AFD03007B60C0467B681800BD46A1
:1015DC0002B080BD00127A00001002400024F4001A
:1015EC0080B582B000AF7860FFF706FF03001B0ADE
:1015FC000F221A40054B9200D3581F2213407A68D1
:10160C00DA4013001800BD4602B080BDAC230008C0
:10161C0080B582B000AF7860FFF7FAFE03001A0BBA
:10162C00054B9200D3581F2213407A68DA401300FE
:10163C001800BD4602B080BDEC23000890B583B005
:10164C0000AFFFF71BFF03003B603B68022B03D08E
:10165C003B68032B03D005E0134B7B6005E0134B79
:10166C007B6002E0104B7B60C046FFF7EFFE020090
:10167C007B6853431C00FFF70DFF03001B0901336C
:10168C0019002000FEF738FD03001C00FFF7EAFEEE
:10169C0003005B0F013319002000FEF72DFD030042
:1016AC001800BD4603B090BD0024F40000127A006F
:1016BC0080B582B000AF78607B681B680122134054
:1016CC00012B01D1012300E000231800BD4602B01C
:1016DC0080BD80B582B000AF786039607B68DB6A12
:1016EC000F2293433A6892B21A437B68DA62C0467F
:1016FC00BD4602B080BD000080B582B000AF7860FE
:10170C0039607B685B68054A1A403B681A437B6802
:10171C005A60C046BD4602B080BDC046FFCFFFFF39
:10172C0080B582B000AF786039607B689B68054AF1
:10173C001A403B681A437B689A60C046BD4602B0AB
:10174C0080BDC046FFFCFFFF80B586B000AFF860DF
:10175C00B9607A603B607B680B2B46D83B6A002BE8
:10176C0043D03A6880231B029A4226D17B68DBB2B5
:10177C001A00204B9200D3581900B868FEF7BCFC35
:10178C0003005A003B6A5B08D318396A1800FEF74D
:10179C00B3FC03009BB27B617B69174A13403B612E
:1017AC007B695B089BB21A00072313403A69134309
:1017BC003B61FB683A69DA6017E07B68DBB21A00C0
:1017CC000C4B9200D3581900B868FEF795FC030037
:1017DC001A003B6A5B08D318396A1800FEF78CFCB8
:1017EC0003009BB21A00FB68DA60C046BD4606B027
:1017FC0080BDC0460C240008F0FF000090B58BB0F3
:10180C0002AF786039601F23FB1801221A70002385
:10181C00BB617B681800FFF74BFF031E53D17B683D
:10182C001B682C4A1A403B6899683B681B69194332
:10183C003B685B6919433B68DB690B431A437B6864
:10184C001A603B68DA687B6811001800FFF754FFD8
:10185C003B689A697B6811001800FFF761FF7B6891
:10186C001D4A934205D10320FFF73EFE0300BB61E6
:10187C000BE07B68194A934207D10C243B191800E2
:10188C00FFF714FE3B199B68BB61BB69002B13D09F
:10189C003B685B68002B0FD01F23FB1800221A70CB
:1018AC003B681A683B68DC693B685B68B9697868B7
:1018BC0000932300FFF748FF3B681A687B68110010
:1018CC001800FFF706FF1F23FB181B781800BD46F6
:1018DC0009B090BDF369FFEF0038014000440040AF
:1018EC0080B582B000AF7860396039687868FEF7EF
:1018FC0003FC03001A00064B013A5A60044B002209
:10190C009A60034B05221A60C046BD4602B080BDEA
:10191C0010E000E080B582B000AF7860FA239A0046
:10192C007B6811001800FFF7DBFFC046BD4602B014
:10193C0080BD000080B584B000AF78600E4B1B6892
:10194C00BB60BB687B68FB60FB6801330CD0FB6839
:10195C000133FB6008E0084B1A6880235B021340DC
:10196C0002D0FB68013BFB60FB68002BF3D1C04647
:10197C00C046BD4604B080BD10E000E080B582B02A
:10198C0000AF7860034B7A681A60C046BD4602B05F
:10199C0080BDC04600000020002310B50400036089
:1019AC004360836081814366C281036143618361CB
:1019BC00190008225C3000F005FA0B4B24626362BC
:1019CC000A4BA3620A4BE3620A4B23630A4B9C4209
:1019DC0005D00A4B9C4202D0094B9C4203D12000FB
:1019EC00583000F06FFA10BDED1B0008151C0008F4
:1019FC004D1C0008791C000880000020E800002025
:101A0C005001002010B5034A0349044800F06CF85B
:101A1C0010BDC04604000020E92100081000002081
:101A2C0041680B4B10B50400994201D000F0D6FB75
:101A3C00A168084B994202D0200000F0CFFBE1686E
:101A4C00054B994202D0200000F0C8FB10BDC046E7
:101A5C0080000020E80000205001002010B5094B48
:101A6C00094A04211A6009480022FFF795FF012258
:101A7C0009210748FFF790FF022212210548FFF7C2
:101A8C008BFF10BDB8010020111A00088000002047
:101A9C00E80000205001002010B5024800F013FAB5
:101AAC0010BDC046C101002010B5024800F00CFA70
:101ABC0010BDC046C101002010B50400FFF7ECFFBB
:101ACC00236A002B02D0FFF7EFFF10BD044B2362FB
:101ADC00044B1B68002BF6D1FFF7C0FFF3E7C046A1
:101AEC002D1A0008B8010020F7B51400002600904C
:101AFC000191A5686768013F04D52468002CF8D1D2
:101B0C003000FEBDAB89012B08D90E22AB5E013330
:101B1C0004D029000098019B984706436835EAE7F2
:101B2C00036A70B505000E008468002B01D1FFF725
:101B3C00C3FF636EDB0705D4A3899B0502D4A06D9C
:101B4C0000F0C1F9A3891B0702D52369002B1FD113
:101B5C002100280000F0D2F8002819D001256D4290
:101B6C00636EDB0705D4A3899B0502D4A06D00F03E
:101B7C00ABF9280070BD0136A360002B04DAA26912
:101B8C009A4216DC0A2914D023685A1C2260197058
:101B9C00A3683178013B0029EDD1A360002B0FDA4B
:101BAC00280022000A3100F067F80A250130D7D14D
:101BBC00D4E72200280000F05FF80130E8D1CDE72F
:101BCC000A2523685A1C22601D70C9E710B5034B07
:101BDC0001001868FFF7A4FF10BDC0465C00002090
:101BEC0070B50C000E25495F00F01AF9002803DBD4
:101BFC00636D1B18636570BDA389024A1340A381F2
:101C0C00F9E7C046FFEFFFFFF8B51F008B89050011
:101C1C000C001600DB0505D50E23C95E002202233D
:101C2C0000F0EAF8A389054A28001340A38132008A
:101C3C000E23E15E3B0000F007F9F8BDFFEFFFFF5C
:101C4C0070B50C000E25495F00F0D6F8A389421C34
:101C5C0003D1054A1340A38170BD80225201134366
:101C6C00A3816065F8E7C046FFEFFFFF10B50E23B8
:101C7C00C95E00F0AFF810BDF8B506000D001400F9
:101C8C00002804D0036A002B01D1FFF715FFA369CC
:101C9C00A360A3891B0728D52369002B25D02369B2
:101CAC002068EFB2C01A6369EDB2834205DC2100F3
:101CBC00300000F093FA00281DD1A3680130013BDD
:101CCC00A36023685A1C22601F706369834204D08E
:101CDC00A389DB0707D50A2D05D12100300000F0C0
:101CEC007DFA002807D12800F8BD2100300000F053
:101CFC0005F80028D3D001256D42F4E7304B70B5C0
:101D0C00050018680C00002804D0036A002B01D1D0
:101D1C00FFF7D2FE0C23E25E93B2110723D4D9064F
:101D2C0007D4092301202B6037331343A38140428E
:101D3C0070BD5B0713D5616B002908D023004433B9
:101D4C00994202D0280000F0C1F8002363632422DA
:101D5C00A3899343A3810023636023692360082331
:101D6C00A2891343A3812369002B0BD1A0218022CC
:101D7C00A389890092000B40934203D021002800D4
:101D8C0000F080FA0C22A35E01201A0099B20240E6
:101D9C0003420FD00022A26062695242A26100206D
:101DAC0022698242C4D10906C2D540221343A381C1
:101DBC000138BDE7880700D46269A260EFE7C0462E
:101DCC005C00002003008218934200D17047197008
:101DDC000133F9E7002370B5064D040008002B60B1
:101DEC00FEF7CCFE431C03D12B68002B00D02360E4
:101DFC0070BDC046BC01002070B504000800110085
:101E0C001A000023054D2B60FEF7D9FE431C03D1AD
:101E1C002B68002B00D0236070BDC046BC01002095
:101E2C0070B50400080011001A000023054D2B604A
:101E3C00FEF76BFE431C03D12B68002B00D02360F4
:101E4C0070BDC046BC01002070B504000800110034
:101E5C001A000023054D2B60FEF774FE431C03D1C2
:101E6C002B68002B00D0236070BDC046BC01002045
:101E7C00014B18687047C0465C00002070B5002606
:101E8C000C4C0D4D641BA410A64209D1002600F089
:101E9C006DFA0A4C0A4D641BA410A64205D170BD04
:101EAC00B300EB5898470136EEE7B300EB58984770
:101EBC000136F2E73C2400083C24000840240008CA
:101ECC003C240008704770477047000070B505004F
:101EDC00002910D00C1F2368002B00DAE41828000E
:101EEC0000F0E2F81D4A1368002B05D16360146002
:101EFC00280000F0E1F870BDA34208D92068211831
:101F0C008B42F3D119685B6809182160EEE71A005F
:101F1C005B68002B01D0A342F9D911685018A0427C
:101F2C000BD120680918501811608342E0D1186851
:101F3C005B68411811605360DAE7A04202D90C23A8
:101F4C002B60D5E7206821188B4203D119685B6898
:101F5C000918216063605460CAE7C046C4010020C0
:101F6C0070B50F4E0D0031680400002902D100F04D
:101F7C00EBF930602900200000F0E6F9431C0AD090
:101F8C000323C51C9D43A84207D0291A200000F04A
:101F9C00DBF9013001D101256D42280070BDC0462E
:101FAC00C8010020F7B50322CB1C9343083306006D
:101FBC001F000C2B38D20C27B94237D8300000F058
:101FCC0073F8384B00931B681C00002C33D139007C
:101FDC003000FFF7C5FF0400431C5ED1009B1C685A
:101FEC002500002D4ED1002C51D023682900E31878
:101FFC003000019300F0A8F9019B834247D123687C
:10200C003000FF1A3900FFF7ABFF01303FD02368D7
:10201C00DB192360009B1B68002B40D05A68A2423E
:10202C0033D100225A6014E0002BC5DA0C230025B2
:10203C0033602800FEBD2168C91B20D40B2918D998
:10204C00E2192760A34212D1009B1A6063681160E9
:10205C0053603000250000F02FF807220B35231DAC
:10206C009543EA1A9D42E4D05B1BA350E1E75A600A
:10207C00ECE76268A342D5D1009B1A60E9E7230024
:10208C006468A2E72C006D68ABE71300C4E70C236F
:10209C003000336000F010F8CBE72760D9E75B60C5
:1020AC00FFDEC046C401002010B50248FFF70BFF4D
:1020BC0010BDC046C001002010B50248FFF704FF58
:1020CC0010BDC046C0010020F7B58B8905000C007F
:1020DC001A075CD44A68002A04DC0A6C002A01DC6A
:1020EC000020FEBDE76A002FFAD0002280202E6867
:1020FC002A601A004001216A0240034234D0606D0C
:10210C00A3895B0706D56368C01A636B002B01D0EB
:10211C00236CC01A020000232800E76A216AB84722
:10212C00A289431C06D129681D292CD82A4B0B41A6
:10213C00DB0728D40023636023692360D20405D510
:10214C00431C02D12B68002B00D16065616B2E60A3
:10215C000029C5D023004433994202D02800FFF750
:10216C00B5FE00206063BCE701232800B847431C80
:10217C00C6D12B68002BC3D01D2B01D0162B01D13F
:10218C002E60ADE7A28940231343A381A9E70E6912
:10219C00002EA5D00F680E60BA1B019200229B077F
:1021AC0000D14A69A260019B002B99DDA36A320021
:1021BC001F002800019B216AB847002806DC402339
:1021CC000120A28940421343A3818AE7019B361860
:1021DC001B1A0193E7E7C046FEFFBFDF0B6970B522
:1021EC0005000C00002B02D10025280070BD002832
:1021FC0004D0036A002B01D1FFF75EFC0C22A35E16
:10220C00002BF1D0626ED20704D49B0502D4A06DD2
:10221C00FFF759FE28002100FFF756FF636E0500FB
:10222C00DB07E2D4A3899B05DFD4A06DFFF74CFE3E
:10223C00DBE7000070B50E001D000E23C95E140014
:10224C0096B000290CDAB2898023110019401A4289
:10225C0013D00021403B00202960236016B070BDD4
:10226C006A4600F04DF80028EDDBF02301991B02C3
:10227C001940034BC9184B4259418023DB00EAE754
:10228C0000E0FFFFF7B502268B8905000C003342F6
:10229C0006D0230047332360236101236361F7BD1C
:1022AC006A4601ABFFF7C6FF009907002800FFF74D
:1022BC0079FE002808D10C22A35E9A05EFD40322E4
:1022CC0093431E43A681E4E78023A2892060134335
:1022DC00A381009B20616361019B002B0CD0280023
:1022EC000E23E15E00F01EF8002805D00323A2891E
:1022FC009A43023B1343A381A3893B43A381CEE7BB
:10230C00002370B5064D0400080011002B60FEF789
:10231C003FFC431C03D12B68002B00D0236070BD05
:10232C00BC010020002370B5064D040008002B6092
:10233C00FEF73CFC431C03D12B68002B00D0236020
:10234C0070BDC046BC010020002370B5064D0400D2
:10235C0008002B60FEF73EFC431C03D12B68002BBE
:10236C0000D0236070BDC046BC010020F8B5C0464B
:10237C00F8BC08BC9E467047F8B5C046F8BC08BC13
:04238C009E467047B2
:1023900048656C6C6F2066726F6D2053544D3332FC
:1023A0004730333120212121200D000000000000A2
:1023B000000000000000000000000000000000001D
:1023C000000000000000000000000000010000000C
:1023D00002000000030000000400000006000000EE
:1023E00007000000080000000900000000000000D5
:1023F00000000000000000000000000001000000DC
:1024000002000000030000000400000001000000C2
:1024100002000000040000000600000008000000A8
:102420000A0000000C000000100000002000000066
:0C243000400000008000000000010000DF
:04243C00E5000008AF
:04244000BD000008D3
:102444000024F400000000000300000080000020CD
:102454000000000080000020E8000020500100205F
:102464000000000000000000000000000000000068
:102474000000000000000000000000000000000058
:102484000000000000000000000000000000000048
:102494000000000000000000000000001000002008
:0400000508000F6977
:00000001FF
